:100000000C9462000C948A000C948A000C948A0070
:100010000C948A000C948A000C948A000C948A0038
:100020000C948A000C948A000C948A000C948A0028
:100030000C948A000C948A000C948A000C948A0018
:100040000C94EE020C948A000C948A000C948A00A2
:100050000C948A000C948A000C948A000C948A00F8
:100060000C948A000C948A00000000070002010032
:100070000003040600000000000000000102040864
:100080001020408001020408102001020408102002
:10009000040404040404040402020202020203032E
:1000A00003030303000000002300260029000000D2
:1000B0000000250028002B0000000000240027007D
:1000C0002A00D70011241FBECFEFD8E0DEBFCDBF7E
:1000D00011E0A0E0B1E0E6EFF7E002C005900D927C
:1000E000A431B107D9F721E0A4E1B1E001C01D922C
:1000F000A332B207E1F710E0C2E6D0E004C02197D6
:10010000FE010E94F303C136D107C9F70E94BE0366
:100110000C94F9030C94000020EC40E462E084E1CC
:1001200091E00E945C0184E191E00C942F020F9316
:100130001F93CF93DF939C01E0E0F1E00AE010E031
:10014000B8010E94CB038383C4E6D0E0C901BE019D
:100150000E94CB03B8010E94CB036283C90168EE01
:1001600073E00E94CB03262FBE010E94CB03618364
:100170002083BF0184E191E0DF91CF911F910F9126
:100180000C947F01CF93DF93C0E0D0E0CE010E94BA
:10019000970068EE73E080E090E00E945D03219696
:1001A000C03187E2D80791F7DF91CF91089542E0FF
:1001B00063E084E191E00C94DD00CF93DF93EC01E8
:1001C000862F6C834D8361E00E945A0261E08D812D
:1001D000DF91CF910C945A02FF920F931F93CF930C
:1001E000DF93EC01F62E08E060E08C810E9496021D
:1001F000F0FE02C061E001C060E08D810E949602C5
:10020000F59461E08C810E949602015069F760E0EC
:100210008C810E94960261E08D810E94960261E0CD
:100220008C810E94960260E08D810E945A028D812D
:100230000E94C502892B69F01F5F183CA1F761E09D
:100240008D810E945A0260E08D810E94960210E02A
:10025000EACF61E08D81DF91CF911F910F91FF90E7
:100260000C945A02CF93DF93EC0161E08C810E94E1
:10027000960261E08D810E94960260E08D810E946D
:10028000960260E08C81DF91CF910C949602CF931F
:10029000DF93EC0160E08C810E94960260E08D812A
:1002A0000E94960261E08C810E94960261E08D813D
:1002B000DF91CF910C949602FC0140832183685713
:1002C00062830895FC018381813011F090E001C0C8
:1002D00090E8FB019B012C5F3F4FA081AF3711F4E9
:1002E000108208C00A2E000CBB0BAC5FBE4F8C9175
:1002F000890F80833196E217F30779F70895CF923B
:10030000DF92EF92FF920F931F93CF93DF9300D072
:1003100000D0CDB7DEB78C01CE0101967C016E0115
:1003200095E0C90ED11CF701DB018D91BD018193D0
:10033000EC15FD05C9F7B701C8010E946201C801AB
:100340000E94320160E4C8010E94EC00C8010E94D2
:100350004701C8010E943201F8016181C8010E9471
:10036000EC00D7016D917D01C8010E94EC00EC14F6
:10037000FD04B9F7C8010E944701C8010E9432017B
:10038000F8016281C8010E94EC00C8010E94470187
:100390000F900F900F900F90DF91CF911F910F91C1
:1003A000FF90EF90DF90CF900895FC018381813022
:1003B00011F080E001C080E86F3739F0E62F660F5A
:1003C000FF0BEC5FFE4F9081890F08950F931F93F1
:1003D000CF93DF93EC01162F642F0E94D501082FD5
:1003E000CE010E94320164E4CE010E94EC00CE01F5
:1003F0000E944701CE010E943201612F606CCE0144
:100400000E94EC00602FCE010E94EC00CE010E9401
:100410004701CE010E9432016A81CE010E94EC00A8
:10042000CE01DF91CF911F910F910C944701CF9393
:10043000DF93EC014FE760E00E94E6014FE761E0E7
:10044000CE010E94E6014FE762E0CE010E94E60184
:100450004FE763E0CE01DF91CF910C94E6010C945D
:100460001702833081F028F4813099F08230A1F0B6
:1004700008958630A9F08730B9F08430D1F48091A6
:1004800080008F7D03C0809180008F7780938000F3
:10049000089584B58F7702C084B58F7D84BD08959B
:1004A0008091B0008F7703C08091B0008F7D8093E2
:1004B000B0000895CF93DF9390E0FC01E458FF4F24
:1004C0002491FC01E057FF4F8491882361F190E073
:1004D000880F991FFC01E854FF4FC591D491FC018E
:1004E000E255FF4FA591B491611109C09FB7F894EF
:1004F0008881209582238883EC912E230BC0623063
:1005000061F49FB7F8948881322F309583238883D4
:10051000EC912E2B2C939FBF06C08FB7F894E881E7
:100520002E2B28838FBFDF91CF9108951F93CF93F8
:10053000DF93282F30E0F901E859FF4F8491F9014A
:10054000E458FF4FD491F901E057FF4FC491CC23F9
:10055000C1F0162F81110E943102EC2FF0E0EE0F56
:10056000FF1FE255FF4FA591B4919FB7F894111169
:1005700004C08C91D095D82302C0EC91DE2BDC9383
:100580009FBFDF91CF911F910895CF93DF93282FC5
:1005900030E0F901E859FF4F8491F901E458FF4F29
:1005A000D491F901E057FF4FC491CC2391F0811110
:1005B0000E943102EC2FF0E0EE0FFF1FEC55FF4FD1
:1005C000A591B491EC91ED2381E090E021F480E0DD
:1005D00002C080E090E0DF91CF9108951F920F92CA
:1005E0000FB60F9211242F933F938F939F93AF9346
:1005F000BF9380911B0190911C01A0911D01B091AE
:100600001E0130911A0123E0230F2D3720F40196AB
:10061000A11DB11D05C026E8230F0296A11DB11D25
:1006200020931A0180931B0190931C01A0931D013C
:10063000B0931E0180911F0190912001A091210192
:10064000B09122010196A11DB11D80931F019093CD
:100650002001A0932101B0932201BF91AF919F91FE
:100660008F913F912F910F900FBE0F901F90189573
:100670003FB7F89480911F0190912001A091210132
:10068000B091220126B5A89B05C02F3F19F0019615
:10069000A11DB11D3FBFBA2FA92F982F8827820F08
:1006A000911DA11DB11DBC01CD0142E0660F771F58
:1006B000881F991F4A95D1F70895CF92DF92EF9244
:1006C000FF92CF93DF936B017C010E943803EB0113
:1006D000C114D104E104F10479F00E9438036C1BC9
:1006E0007D0B683E7340A0F381E0C81AD108E10891
:1006F000F108C851DC4FECCFDF91CF91FF90EF9024
:10070000DF90CF900895789484B5826084BD84B5DD
:10071000816084BD85B5826085BD85B5816085BDFC
:10072000EEE6F0E0808181608083E1E8F0E0108215
:10073000808182608083808181608083E0E8F0E056
:10074000808181608083E1EBF0E080818460808340
:10075000E0EBF0E0808181608083EAE7F0E0808177
:1007600084608083808182608083808181608083D7
:100770008081806880831092C10008950E94830365
:100780000E948C00C0E0D0E00E94C2002097E1F3FC
:100790000E940000F9CF97FB072E16F4009407D0B3
:1007A00077FD09D00E94DF0307FC05D03EF4909549
:1007B00081959F4F0895709561957F4F0895AA1B6D
:1007C000BB1B51E107C0AA1FBB1FA617B70710F03C
:1007D000A61BB70B881F991F5A95A9F7809590956E
:1007E000BC01CD010895EE0FFF1F0590F491E02D9F
:0607F0000994F894FFCF0C
:1007F600010203043F065B4F666D7D077F6F777CC2
:04080600395E79716D
:00000001FF
