:100000000C9462000C948A000C948A000C948A0070
:100010000C948A000C948A000C948A000C948A0038
:100020000C948A000C948A000C948A000C948A0028
:100030000C948A000C948A000C948A000C948A0018
:100040000C9446030C948A000C948A000C948A0049
:100050000C948A000C948A000C948A000C948A00F8
:100060000C948A000C948A00000000070002010032
:100070000003040600000000000000000102040864
:100080001020408001020408102001020408102002
:10009000040404040404040402020202020203032E
:1000A00003030303000000002300260029000000D2
:1000B0000000250028002B0000000000240027007D
:1000C0002A002F0111241FBECFEFD8E0DEBFCDBF25
:1000D00011E0A0E0B1E0E6EAF8E002C005900D9280
:1000E000AC31B107D9F721E0ACE1B1E001C01D921C
:1000F000AD32B207E1F710E0C2E6D0E004C02197CC
:10010000FE010E944B04C136D107C9F70E941604B4
:100110000C9451040C94000020EC40E462E08EE169
:1001200091E00E94B4018EE191E00E94870262E0BA
:10013000809102010E94B20261E0809104010C945E
:10014000B2020F931F93CF93DF939C01E8E0F1E09D
:100150000AE010E0B8010E9423048383C4E6D0E0E3
:10016000C901BE010E942304B8010E9423046283D6
:10017000C90168EE73E00E942304262FBE010E948D
:10018000230461832083BF018EE191E0DF91CF9151
:100190001F910F910C94D701809102010E941D03C1
:1001A0009C0191E02115310509F490E09093010143
:1001B00080910001981791F0232B61F48091040144
:1001C0000E941D0361E0892B09F060E08091040129
:1001D0000E94EE0280910101809300010895CF9367
:1001E000DF93C2E0D0E08091060190910701803159
:1001F000974294F50E94CC008091060190910701EE
:100200000E94A1006AEF70E080E090E00E94B503D8
:1002100080910601909107019C012F5F3F4F309321
:1002200007012093060120911C0130911D0121300E
:10023000310531F487519C4F90930701809306015B
:1002400080910601909107018031974264F2D0932A
:100250000701C0930601C7CFDF91CF91089542E017
:1002600063E08EE191E00C943501CF93DF93EC01D4
:10027000862F6C834D8361E00E94B20261E08D8124
:10028000DF91CF910C94B202FF920F931F93CF9303
:10029000DF93EC01F62E08E060E08C810E94EE0214
:1002A000F0FE02C061E001C060E08D810E94EE02BC
:1002B000F59461E08C810E94EE02015069F760E0E4
:1002C0008C810E94EE0261E08D810E94EE0261E06D
:1002D0008C810E94EE0260E08D810E94B2028D81CD
:1002E0000E941D03892B69F01F5F183CA1F761E094
:1002F0008D810E94B20260E08D810E94EE0210E0CA
:10030000EACF61E08D81DF91CF911F910F91FF9036
:100310000C94B202CF93DF93EC0161E08C810E94D8
:10032000EE0261E08D810E94EE0260E08D810E940C
:10033000EE0260E08C81DF91CF910C94EE02CF93BE
:10034000DF93EC0160E08C810E94EE0260E08D8121
:100350000E94EE0261E08C810E94EE0261E08D81DC
:10036000DF91CF910C94EE02FC014083218368570A
:1003700062830895FC018381813011F090E001C017
:1003800090E8FB019B012C5F3F4FA081AF3711F438
:10039000108208C00A2E000CBB0BA45FBE4F8C91CC
:1003A000890F80833196E217F30779F70895CF928A
:1003B000DF92EF92FF920F931F93CF93DF9300D0C2
:1003C00000D0CDB7DEB78C01CE0101967C016E0165
:1003D00095E0C90ED11CF701DB018D91BD01819320
:1003E000EC15FD05C9F7B701C8010E94BA01C801A3
:1003F0000E948A0160E4C8010E944401C8010E9471
:100400009F01C8010E948A01F8016181C8010E9410
:100410004401D7016D917D01C8010E944401EC1493
:10042000FD04B9F7C8010E949F01C8010E948A011A
:10043000F8016281C8010E944401C8010E949F0125
:100440000F900F900F900F90DF91CF911F910F9110
:10045000FF90EF90DF90CF900895FC018381813071
:1004600011F080E001C080E86F3739F0E62F660FA9
:10047000FF0BE45FFE4F9081890F08950F931F9348
:10048000CF93DF93EC01162F642F0E942D02082FCB
:10049000CE010E948A0164E4CE010E944401CE0193
:1004A0000E949F01CE010E948A01612F606CCE01E3
:1004B0000E944401602FCE010E944401CE010E949F
:1004C0009F01CE010E948A016A81CE010E944401EF
:1004D000CE01DF91CF911F910F910C949F01CF938B
:1004E000DF93EC014FE760E00E943E024FE761E0DE
:1004F000CE010E943E024FE762E0CE010E943E0222
:100500004FE763E0CE01DF91CF910C943E020C9453
:100510006F02833081F028F4813099F08230A1F0AD
:1005200008958630A9F08730B9F08430D1F48091F5
:1005300080008F7D03C0809180008F778093800042
:10054000089584B58F7702C084B58F7D84BD0895EA
:100550008091B0008F7703C08091B0008F7D809331
:10056000B0000895CF93DF9390E0FC01E458FF4F73
:100570002491FC01E057FF4F8491882361F190E0C2
:10058000880F991FFC01E854FF4FC591D491FC01DD
:10059000E255FF4FA591B491611109C09FB7F8943E
:1005A0008881209582238883EC912E230BC06230B2
:1005B00061F49FB7F8948881322F30958323888324
:1005C000EC912E2B2C939FBF06C08FB7F894E88137
:1005D0002E2B28838FBFDF91CF9108951F93CF9348
:1005E000DF93282F30E0F901E859FF4F8491F9019A
:1005F000E458FF4FD491F901E057FF4FC491CC2349
:10060000C1F0162F81110E948902EC2FF0E0EE0F4D
:10061000FF1FE255FF4FA591B4919FB7F8941111B8
:1006200004C08C91D095D82302C0EC91DE2BDC93D2
:100630009FBFDF91CF911F910895CF93DF93282F14
:1006400030E0F901E859FF4F8491F901E458FF4F78
:10065000D491F901E057FF4FC491CC2391F081115F
:100660000E948902EC2FF0E0EE0FFF1FEC55FF4FC8
:10067000A591B491EC91ED2381E090E021F480E02C
:1006800002C080E090E0DF91CF9108951F920F9219
:100690000FB60F9211242F933F938F939F93AF9395
:1006A000BF938091250190912601A0912701B091DF
:1006B00028013091240123E0230F2D3720F40196E7
:1006C000A11DB11D05C026E8230F0296A11DB11D75
:1006D000209324018093250190932601A093270164
:1006E000B09328018091290190912A01A0912B01BA
:1006F000B0912C010196A11DB11D80932901909309
:100700002A01A0932B01B0932C01BF91AF919F912F
:100710008F913F912F910F900FBE0F901F901895C2
:100720003FB7F8948091290190912A01A0912B0163
:10073000B0912C0126B5A89B05C02F3F19F001965A
:10074000A11DB11D3FBFBA2FA92F982F8827820F57
:10075000911DA11DB11DBC01CD0142E0660F771FA7
:10076000881F991F4A95D1F70895CF92DF92EF9293
:10077000FF92CF93DF936B017C010E949003EB010A
:10078000C114D104E104F10479F00E9490036C1BC0
:100790007D0B683E7340A0F381E0C81AD108E108E0
:1007A000F108C851DC4FECCFDF91CF91FF90EF9073
:1007B000DF90CF900895789484B5826084BD84B52D
:1007C000816084BD85B5826085BD85B5816085BD4C
:1007D000EEE6F0E0808181608083E1E8F0E0108265
:1007E000808182608083808181608083E0E8F0E0A6
:1007F000808181608083E1EBF0E080818460808390
:10080000E0EBF0E0808181608083EAE7F0E08081C6
:100810008460808380818260808380818160808326
:100820008081806880831092C10008950E94DB035C
:100830000E948C00C0E0D0E00E94EF002097E1F31E
:100840000E940000F9CF97FB072E16F4009407D002
:1008500077FD09D00E94370407FC05D03EF490953F
:1008600081959F4F0895709561957F4F0895AA1BBC
:10087000BB1B51E107C0AA1FBB1FA617B70710F08B
:10088000A61BB70B881F991F5A95A9F780959095BD
:10089000BC01CD010895EE0FFF1F0590F491E02DEE
:0608A0000994F894FFCF5B
:1008A600010104000D000500010203043F065B4F31
:0C08B600666D7D077F6F777C395E79717D
:00000001FF
