:100000000C9462000C948A000C948A000C948A0070
:100010000C948A000C948A000C948A000C948A0038
:100020000C948A000C948A000C948A000C948A0028
:100030000C948A000C948A000C948A000C948A0018
:100040000C9485030C948A000C948A000C948A000A
:100050000C948A000C948A000C948A000C948A00F8
:100060000C948A000C948A00000000070002010032
:100070000003040600000000000000000102040864
:100080001020408001020408102001020408102002
:10009000040404040404040402020202020203032E
:1000A00003030303000000002300260029000000D2
:1000B0000000250028002B0000000000240027007D
:1000C0002A00550111241FBECFEFD8E0DEBFCDBFFF
:1000D00011E0A0E0B1E0E6EAF8E002C005900D9280
:1000E000AC31B107D9F721E0ACE1B1E001C01D921C
:1000F000A533B207E1F710E0C2E6D0E004C02197D3
:10010000FE010E944B04C136D107C9F70E941604B4
:100110000C9451040C94000020EC40E462E086E270
:1001200091E00E94F30186E291E00E94C60262E043
:10013000809102010E94F10261E0809104010C941F
:10014000F1020F931F93CF93DF939C01E8E0F1E05E
:100150000AE010E0B8010E9423048383C4E6D0E0E3
:10016000C901BE010E942304B8010E9423046283D6
:10017000C90168EE73E00E942304262FBE010E948D
:10018000230461832083BF0186E291E0DF91CF9158
:100190001F910F910C941602809102010E945C0342
:1001A0009C0191E02115310509F490E09093010143
:1001B00080910001981791F0232B61F48091040144
:1001C0000E945C0361E0892B09F060E080910401EA
:1001D0000E942D03809101018093000108950F93E7
:1001E0001F9380910601909107010E94A1000E9437
:1001F000CF03009120011091210120912201309123
:100200002301DC01CB01801B910BA20BB30B893EB8
:100210009340A105B10508F1809106019091070175
:10022000019690930701809306010E94CF0360938B
:100230002001709321018093220190932301DC011E
:10024000CB0188519C4FAF4FBF4F80931C019093BF
:100250001D01A0931E01B0931F01809102010E9415
:100260005C039093250180932401892B51F48091A4
:1002700006019091070188519C4F9093070180934C
:10028000060180910601909107018031974234F078
:1002900082E090E090930701809306011F910F91F7
:1002A00008950E94CC000C94EF0042E063E086E2E7
:1002B00091E00E9474010E94CF036093200170932B
:1002C00021018093220190932301DC01CB0188510D
:1002D0009C4FAF4FBF4F80931C0190931D01A09383
:1002E0001E01B0931F010895CF93DF93EC01862F79
:1002F0006C834D8361E00E94F10261E08D81DF91AA
:10030000CF910C94F102FF920F931F93CF93DF9341
:10031000EC01F62E08E060E08C810E942D03F0FED7
:1003200002C061E001C060E08D810E942D03F59460
:1003300061E08C810E942D03015069F760E08C819F
:100340000E942D0361E08D810E942D0361E08C816C
:100350000E942D0360E08D810E94F1028D810E9438
:100360005C03892B69F01F5F183CA1F761E08D8168
:100370000E94F10260E08D810E942D0310E0EACF1F
:1003800061E08D81DF91CF911F910F91FF900C94CF
:10039000F102CF93DF93EC0161E08C810E942D0389
:1003A00061E08D810E942D0360E08D810E942D030C
:1003B00060E08C81DF91CF910C942D03CF93DF937C
:1003C000EC0160E08C810E942D0360E08D810E9431
:1003D0002D0361E08C810E942D0361E08D81DF910E
:1003E000CF910C942D03FC014083218368576283D5
:1003F0000895FC018381813011F090E001C090E804
:10040000FB019B012C5F3F4FA081AF3711F410829D
:1004100008C00A2E000CBB0BA45FBE4F8C91890F45
:1004200080833196E217F30779F70895CF92DF9230
:10043000EF92FF920F931F93CF93DF9300D000D0E2
:10044000CDB7DEB78C01CE0101967C016E0195E03F
:10045000C90ED11CF701DB018D91BD018193EC1513
:10046000FD05C9F7B701C8010E94F901C8010E9442
:10047000C90160E4C8010E948301C8010E94DE0135
:10048000C8010E94C901F8016181C8010E9483016D
:10049000D7016D917D01C8010E948301EC14FD0418
:1004A000B9F7C8010E94DE01C8010E94C901F80124
:1004B0006281C8010E948301C8010E94DE010F9081
:1004C0000F900F900F90DF91CF911F910F91FF90A0
:1004D000EF90DF90CF900895FC018381813011F07F
:1004E00080E001C080E86F3739F0E62F660FFF0B20
:1004F000E45FFE4F9081890F08950F931F93CF9370
:10050000DF93EC01162F642F0E946C02082FCE019E
:100510000E94C90164E4CE010E948301CE010E94C1
:10052000DE01CE010E94C901612F606CCE010E94E4
:100530008301602FCE010E948301CE010E94DE0163
:10054000CE010E94C9016A81CE010E948301CE01C1
:10055000DF91CF911F910F910C94DE01CF93DF9328
:10056000EC014FE760E00E947D024FE761E0CE01C1
:100570000E947D024FE762E0CE010E947D024FE7BC
:1005800063E0CE01DF91CF910C947D020C94AE021A
:10059000833081F028F4813099F08230A1F0089501
:1005A0008630A9F08730B9F08430D1F48091800092
:1005B0008F7D03C0809180008F77809380000895A5
:1005C00084B58F7702C084B58F7D84BD08958091F6
:1005D000B0008F7703C08091B0008F7D8093B00012
:1005E0000895CF93DF9390E0FC01E458FF4F2491EE
:1005F000FC01E057FF4F8491882361F190E0880F60
:10060000991FFC01E854FF4FC591D491FC01E255BC
:10061000FF4FA591B491611109C09FB7F8948881EB
:10062000209582238883EC912E230BC0623061F4E5
:100630009FB7F8948881322F309583238883EC917B
:100640002E2B2C939FBF06C08FB7F894E8812E2BDA
:1006500028838FBFDF91CF9108951F93CF93DF93AE
:10066000282F30E0F901E859FF4F8491F901E4584F
:10067000FF4FD491F901E057FF4FC491CC23C1F053
:10068000162F81110E94C802EC2FF0E0EE0FFF1F21
:10069000E255FF4FA591B4919FB7F894111104C092
:1006A0008C91D095D82302C0EC91DE2BDC939FBFB8
:1006B000DF91CF911F910895CF93DF93282F30E0E2
:1006C000F901E859FF4F8491F901E458FF4FD491A3
:1006D000F901E057FF4FC491CC2391F081110E94A2
:1006E000C802EC2FF0E0EE0FFF1FEC55FF4FA59175
:1006F000B491EC91ED2381E090E021F480E002C020
:1007000080E090E0DF91CF9108951F920F920FB695
:100710000F9211242F933F938F939F93AF93BF9387
:1007200080912D0190912E01A0912F01B091300167
:1007300030912C0123E0230F2D3720F40196A11DC9
:10074000B11D05C026E8230F0296A11DB11D2093FF
:100750002C0180932D0190932E01A0932F01B09333
:1007600030018091310190913201A0913301B0911B
:1007700034010196A11DB11D809331019093320186
:10078000A0933301B0933401BF91AF919F918F91AA
:100790003F912F910F900FBE0F901F9018952FB77C
:1007A000F89460912D0170912E0180912F0190910C
:1007B00030012FBF0895789484B5826084BD84B5DC
:1007C000816084BD85B5826085BD85B5816085BD4C
:1007D000EEE6F0E0808181608083E1E8F0E0108265
:1007E000808182608083808181608083E0E8F0E0A6
:1007F000808181608083E1EBF0E080818460808390
:10080000E0EBF0E0808181608083EAE7F0E08081C6
:100810008460808380818260808380818160808326
:100820008081806880831092C10008950E94DB035C
:100830000E948C00C0E0D0E00E9451012097E1F3BB
:100840000E940000F9CF97FB072E16F4009407D002
:1008500077FD09D00E94370407FC05D03EF490953F
:1008600081959F4F0895709561957F4F0895AA1BBC
:10087000BB1B51E107C0AA1FBB1FA617B70710F08B
:10088000A61BB70B881F991F5A95A9F780959095BD
:10089000BC01CD010895EE0FFF1F0590F491E02DEE
:0608A0000994F894FFCF5B
:1008A600010104000D000500010203043F065B4F31
:0C08B600666D7D077F6F777C395E79717D
:00000001FF
