:100000000C9462000C948A000C948A000C948A0070
:100010000C948A000C948A000C948A000C948A0038
:100020000C948A000C948A000C948A000C948A0028
:100030000C948A000C948A000C948A000C948A0018
:100040000C941C030C948A000C948A000C948A0073
:100050000C948A000C948A000C948A000C948A00F8
:100060000C948A000C948A00000000070002010032
:100070000003040600000000000000000102040864
:100080001020408001020408102001020408102002
:10009000040404040404040402020202020203032E
:1000A00003030303000000002300260029000000D2
:1000B0000000250028002B0000000000240027007D
:1000C0002A00050111241FBECFEFD8E0DEBFCDBF4F
:1000D00011E0A0E0B1E0E2E5F8E002C005900D9289
:1000E000A631B107D9F721E0A6E1B1E001C01D9228
:1000F000A732B207E1F710E0C2E6D0E004C02197D2
:10010000FE010E942104C136D107C9F70E94EC0309
:100110000C9427040C94000020EC40E462E086E19B
:1001200091E00E948A0186E191E00E945D0260E018
:1001300084E00C9488020F931F93CF93DF939C016C
:10014000E0E0F1E00AE010E0B8010E94F9038383E7
:10015000C4E6D0E0C901BE010E94F903B8010E94C3
:10016000F9036283C90168EE73E00E94F903262F48
:10017000BE010E94F90361832083BF0186E191E003
:10018000DF91CF911F910F910C94AD01CF93DF932D
:10019000C2E0D0E08091040190910501803127E216
:1001A000920784F50E949B006AEF70E080E090E087
:1001B0000E948B0380910401909105010196909318
:1001C00005018093040184E00E94F30290931D01D5
:1001D00080931C01019751F48091040190910501D5
:1001E00088519C4F909305018093040180910401F4
:1001F00090910501803197426CF2D0930501C09334
:100200000401C8CFDF91CF91089542E063E086E119
:1002100091E00C940B01CF93DF93EC01862F6C835C
:100220004D8361E00E94880261E08D81DF91CF9172
:100230000C948802FF920F931F93CF93DF93EC01EE
:10024000F62E08E060E08C810E94C402F0FE02C03D
:1002500061E001C060E08D810E94C402F59461E01C
:100260008C810E94C402015069F760E08C810E9479
:10027000C40261E08D810E94C40261E08C810E9411
:10028000C40260E08D810E9488028D810E94F30289
:10029000892B69F01F5F183CA1F761E08D810E94F6
:1002A000880260E08D810E94C40210E0EACF61E024
:1002B0008D81DF91CF911F910F91FF900C94880257
:1002C000CF93DF93EC0161E08C810E94C40261E076
:1002D0008D810E94C40260E08D810E94C40260E0B2
:1002E0008C81DF91CF910C94C402CF93DF93EC010A
:1002F00060E08C810E94C40260E08D810E94C40293
:1003000061E08C810E94C40261E08D81DF91CF9118
:100310000C94C402FC0140832183685762830895D2
:10032000FC018381813011F090E001C090E8FB0175
:100330009B012C5F3F4FA081AF3711F4108208C0A2
:100340000A2E000CBB0BAA5FBE4F8C91890F8083D5
:100350003196E217F30779F70895CF92DF92EF9283
:10036000FF920F931F93CF93DF9300D000D0CDB7B0
:10037000DEB78C01CE0101967C016E0195E0C90EBD
:10038000D11CF701DB018D91BD018193EC15FD05B9
:10039000C9F7B701C8010E949001C8010E9460011D
:1003A00060E4C8010E941A01C8010E947501C801D9
:1003B0000E946001F8016181C8010E941A01D70101
:1003C0006D917D01C8010E941A01EC14FD04B9F77A
:1003D000C8010E947501C8010E946001F801628194
:1003E000C8010E941A01C8010E9475010F900F9068
:1003F0000F900F90DF91CF911F910F91FF90EF9091
:10040000DF90CF900895FC018381813011F080E06E
:1004100001C080E86F3739F0E62F660FFF0BEA5F07
:10042000FE4F9081890F08950F931F93CF93DF9311
:10043000EC01162F642F0E940302082FCE010E94A8
:10044000600164E4CE010E941A01CE010E94750190
:10045000CE010E946001612F606CCE010E941A01E2
:10046000602FCE010E941A01CE010E947501CE01BB
:100470000E9460016A81CE010E941A01CE01DF91C3
:10048000CF911F910F910C947501CF93DF93EC01E5
:100490004FE760E00E9414024FE761E0CE010E9446
:1004A00014024FE762E0CE010E9414024FE763E0BE
:1004B000CE01DF91CF910C9414020C94450283304D
:1004C00081F028F4813099F08230A1F008958630CF
:1004D000A9F08730B9F08430D1F4809180008F7D0D
:1004E00003C0809180008F7780938000089584B549
:1004F0008F7702C084B58F7D84BD08958091B00050
:100500008F7703C08091B0008F7D8093B0000895F5
:10051000CF93DF9390E0FC01E458FF4F2491FC015E
:10052000E057FF4F8491882361F190E0880F991F75
:10053000FC01E854FF4FC591D491FC01E255FF4FF7
:10054000A591B491611109C09FB7F8948881209555
:1005500082238883EC912E230BC0623061F49FB715
:10056000F8948881322F309583238883EC912E2B49
:100570002C939FBF06C08FB7F894E8812E2B288359
:100580008FBFDF91CF9108951F93CF93DF93282FD3
:1005900030E0F901E859FF4F8491F901E458FF4F29
:1005A000D491F901E057FF4FC491CC23C1F0162F2D
:1005B00081110E945F02EC2FF0E0EE0FFF1FE25569
:1005C000FF4FA591B4919FB7F894111104C08C917D
:1005D000D095D82302C0EC91DE2BDC939FBFDF9136
:1005E000CF911F910895CF93DF93282F30E0F90129
:1005F000E859FF4F8491F901E458FF4FD491F90174
:10060000E057FF4FC491CC2391F081110E945F020B
:10061000EC2FF0E0EE0FFF1FEC55FF4FA591B491CA
:10062000EC91ED2381E090E021F480E002C080E0D5
:1006300090E0DF91CF9108951F920F920FB60F9225
:1006400011242F933F938F939F93AF93BF938091E8
:100650001F0190912001A0912101B09122013091C0
:100660001E0123E0230F2D3720F40196A11DB11D9B
:1006700005C026E8230F0296A11DB11D20931E017F
:1006800080931F0190932001A0932101B093220138
:100690008091230190912401A0912501B091260120
:1006A0000196A11DB11D8093230190932401A09375
:1006B0002501B0932601BF91AF919F918F913F91FA
:1006C0002F910F900FBE0F901F9018953FB7F89481
:1006D0008091230190912401A0912501B0912601E0
:1006E00026B5A89B05C02F3F19F00196A11DB11D8D
:1006F0003FBFBA2FA92F982F8827820F911DA11DC8
:10070000B11DBC01CD0142E0660F771F881F991F04
:100710004A95D1F70895CF92DF92EF92FF92CF934F
:10072000DF936B017C010E946603EB01C114D104CD
:10073000E104F10479F00E9466036C1B7D0B683EB6
:100740007340A0F381E0C81AD108E108F108C8514C
:10075000DC4FECCFDF91CF91FF90EF90DF90CF9007
:100760000895789484B5826084BD84B5816084BD29
:1007700085B5826085BD85B5816085BDEEE6F0E01A
:10078000808181608083E1E8F0E010828081826076
:100790008083808181608083E0E8F0E080818160F7
:1007A0008083E1EBF0E0808184608083E0EBF0E027
:1007B000808181608083EAE7F0E0808184608083CB
:1007C0008081826080838081816080838081806875
:1007D00080831092C10008950E94B1030E948C0092
:1007E000C0E0D0E00E94C6002097E1F30E94000024
:1007F000F9CF97FB072E16F4009407D077FD09D0A8
:100800000E940D0407FC05D03EF4909581959F4F02
:100810000895709561957F4F0895AA1BBB1B51E108
:1008200007C0AA1FBB1FA617B70710F0A61BB70B60
:10083000881F991F5A95A9F780959095BC01CD0105
:100840000895EE0FFF1F0590F491E02D0994F894A0
:02085000FFCFD8
:100852000102030405003F065B4F666D7D077F6F53
:06086200777C395E79711C
:00000001FF
